{
    "_format": "hh-sol-artifact-1",
    "contractName": "DBlog",
    "sourceName": "contracts/DBlog.sol",
    "abi": [
        {
            "inputs": [],
            "stateMutability": "payable",
            "type": "constructor"
        },
        {
            "inputs": [
                {
                    "internalType": "uint256",
                    "name": "blogId",
                    "type": "uint256"
                }
            ],
            "name": "buyBlog",
            "outputs": [],
            "stateMutability": "payable",
            "type": "function"
        },
        {
            "inputs": [
                {
                    "internalType": "string",
                    "name": "_blogTitle",
                    "type": "string"
                },
                {
                    "internalType": "string",
                    "name": "_blogBody",
                    "type": "string"
                },
                {
                    "internalType": "uint256",
                    "name": "_salePrice",
                    "type": "uint256"
                },
                {
                    "internalType": "bool",
                    "name": "_onSale",
                    "type": "bool"
                }
            ],
            "name": "createBlog",
            "outputs": [],
            "stateMutability": "payable",
            "type": "function"
        },
        {
            "inputs": [
                {
                    "internalType": "uint256",
                    "name": "blogId",
                    "type": "uint256"
                }
            ],
            "name": "getABlog",
            "outputs": [
                {
                    "components": [
                        {
                            "internalType": "uint256",
                            "name": "blogId",
                            "type": "uint256"
                        },
                        {
                            "internalType": "address",
                            "name": "blogOwner",
                            "type": "address"
                        },
                        {
                            "internalType": "address",
                            "name": "blogCreator",
                            "type": "address"
                        },
                        {
                            "internalType": "string",
                            "name": "blogTitle",
                            "type": "string"
                        },
                        {
                            "internalType": "string",
                            "name": "blogBody",
                            "type": "string"
                        },
                        {
                            "internalType": "uint256",
                            "name": "numOfReads",
                            "type": "uint256"
                        },
                        {
                            "internalType": "uint256",
                            "name": "salePrice",
                            "type": "uint256"
                        },
                        {
                            "internalType": "bool",
                            "name": "onSale",
                            "type": "bool"
                        }
                    ],
                    "internalType": "struct DBlog.Blog",
                    "name": "",
                    "type": "tuple"
                }
            ],
            "stateMutability": "view",
            "type": "function"
        },
        {
            "inputs": [],
            "name": "getAllBlogs",
            "outputs": [
                {
                    "components": [
                        {
                            "internalType": "uint256",
                            "name": "blogId",
                            "type": "uint256"
                        },
                        {
                            "internalType": "address",
                            "name": "blogOwner",
                            "type": "address"
                        },
                        {
                            "internalType": "address",
                            "name": "blogCreator",
                            "type": "address"
                        },
                        {
                            "internalType": "string",
                            "name": "blogTitle",
                            "type": "string"
                        },
                        {
                            "internalType": "string",
                            "name": "blogBody",
                            "type": "string"
                        },
                        {
                            "internalType": "uint256",
                            "name": "numOfReads",
                            "type": "uint256"
                        },
                        {
                            "internalType": "uint256",
                            "name": "salePrice",
                            "type": "uint256"
                        },
                        {
                            "internalType": "bool",
                            "name": "onSale",
                            "type": "bool"
                        }
                    ],
                    "internalType": "struct DBlog.Blog[]",
                    "name": "",
                    "type": "tuple[]"
                }
            ],
            "stateMutability": "view",
            "type": "function"
        },
        {
            "inputs": [],
            "name": "getContractName",
            "outputs": [
                {
                    "internalType": "string",
                    "name": "",
                    "type": "string"
                }
            ],
            "stateMutability": "view",
            "type": "function"
        },
        {
            "inputs": [
                {
                    "internalType": "uint256",
                    "name": "blogId",
                    "type": "uint256"
                }
            ],
            "name": "putBlogOnSale",
            "outputs": [],
            "stateMutability": "nonpayable",
            "type": "function"
        },
        {
            "inputs": [
                {
                    "internalType": "uint256",
                    "name": "blogId",
                    "type": "uint256"
                }
            ],
            "name": "readBlog",
            "outputs": [],
            "stateMutability": "nonpayable",
            "type": "function"
        },
        {
            "inputs": [
                {
                    "internalType": "uint256",
                    "name": "blogId",
                    "type": "uint256"
                }
            ],
            "name": "removeBlogFromSale",
            "outputs": [],
            "stateMutability": "nonpayable",
            "type": "function"
        },
        {
            "stateMutability": "payable",
            "type": "receive"
        }
    ],
    "bytecode": "0x6080604052336000806101000a81548173ffffffffffffffffffffffffffffffffffffffff021916908373ffffffffffffffffffffffffffffffffffffffff1602179055506040518060400160405280601681526020017f446563656e7472616c697a656420426c6f672041707000000000000000000000815250600290805190602001906200009192919062000098565b50620001ad565b828054620000a69062000148565b90600052602060002090601f016020900481019282620000ca576000855562000116565b82601f10620000e557805160ff191683800117855562000116565b8280016001018555821562000116579182015b8281111562000115578251825591602001919060010190620000f8565b5b50905062000125919062000129565b5090565b5b80821115620001445760008160009055506001016200012a565b5090565b600060028204905060018216806200016157607f821691505b602082108114156200017857620001776200017e565b5b50919050565b7f4e487b7100000000000000000000000000000000000000000000000000000000600052602260045260246000fd5b611e8580620001bd6000396000f3fe60806040526004361061007f5760003560e01c8063b8e01fb11161004e578063b8e01fb114610115578063c4c7470014610152578063de82c35c1461017d578063f5f5ba72146101a657610086565b80630a1f58cd1461008b57806348f7516e146100a75780635c064e31146100c3578063ac845d66146100ec57610086565b3661008657005b600080fd5b6100a560048036038101906100a09190611307565b6101d1565b005b6100c160048036038101906100bc919061139a565b6104d4565b005b3480156100cf57600080fd5b506100ea60048036038101906100e5919061139a565b6108fe565b005b3480156100f857600080fd5b50610113600480360381019061010e919061139a565b610a06565b005b34801561012157600080fd5b5061013c6004803603810190610137919061139a565b610af0565b60405161014991906118b5565b60405180910390f35b34801561015e57600080fd5b50610167610d5c565b6040516101749190611771565b60405180910390f35b34801561018957600080fd5b506101a4600480360381019061019f919061139a565b610fc5565b005b3480156101b257600080fd5b506101bb6110cd565b6040516101c89190611793565b60405180910390f35b662386f26fc10000341461021a576040517f08c379a000000000000000000000000000000000000000000000000000000000815260040161021190611875565b60405180910390fd5b66038d7ea4c68000808361022e9190611993565b1161026e576040517f08c379a0000000000000000000000000000000000000000000000000000000008152600401610265906117f5565b60405180910390fd5b60038451116102b2576040517f08c379a00000000000000000000000000000000000000000000000000000000081526004016102a990611855565b60405180910390fd5b600360405180610100016040528060015481526020013373ffffffffffffffffffffffffffffffffffffffff1681526020013373ffffffffffffffffffffffffffffffffffffffff1681526020018681526020018581526020016000815260200166038d7ea4c68000856103269190611993565b815260200183151581525090806001815401808255809150506001900390600052602060002090600802016000909190919091506000820151816000015560208201518160010160006101000a81548173ffffffffffffffffffffffffffffffffffffffff021916908373ffffffffffffffffffffffffffffffffffffffff16021790555060408201518160020160006101000a81548173ffffffffffffffffffffffffffffffffffffffff021916908373ffffffffffffffffffffffffffffffffffffffff160217905550606082015181600301908051906020019061040e92919061115f565b50608082015181600401908051906020019061042b92919061115f565b5060a0820151816005015560c0820151816006015560e08201518160070160006101000a81548160ff02191690831515021790555050503360046000600154815260200190815260200160002060006101000a81548173ffffffffffffffffffffffffffffffffffffffff021916908373ffffffffffffffffffffffffffffffffffffffff160217905550600160008154809291906104c990611b0e565b919050555050505050565b6004600082815260200190815260200160002060009054906101000a900473ffffffffffffffffffffffffffffffffffffffff1673ffffffffffffffffffffffffffffffffffffffff163373ffffffffffffffffffffffffffffffffffffffff161415610576576040517f08c379a000000000000000000000000000000000000000000000000000000000815260040161056d906117b5565b60405180910390fd5b60011515600382815481106105b4577f4e487b7100000000000000000000000000000000000000000000000000000000600052603260045260246000fd5b906000526020600020906008020160070160009054906101000a900460ff16151514610615576040517f08c379a000000000000000000000000000000000000000000000000000000000815260040161060c90611815565b60405180910390fd5b6003818154811061064f577f4e487b7100000000000000000000000000000000000000000000000000000000600052603260045260246000fd5b90600052602060002090600802016006015434146106a2576040517f08c379a000000000000000000000000000000000000000000000000000000000815260040161069990611895565b60405180910390fd5b600381815481106106dc577f4e487b7100000000000000000000000000000000000000000000000000000000600052603260045260246000fd5b906000526020600020906008020160010160009054906101000a900473ffffffffffffffffffffffffffffffffffffffff1673ffffffffffffffffffffffffffffffffffffffff166108fc66038d7ea4c6800060038481548110610769577f4e487b7100000000000000000000000000000000000000000000000000000000600052603260045260246000fd5b90600052602060002090600802016006015461078591906119ed565b9081150290604051600060405180830381858888f193505050501580156107b0573d6000803e3d6000fd5b5060008054906101000a900473ffffffffffffffffffffffffffffffffffffffff1673ffffffffffffffffffffffffffffffffffffffff166108fc66038d7ea4c680009081150290604051600060405180830381858888f1935050505015801561081e573d6000803e3d6000fd5b50336003828154811061085a577f4e487b7100000000000000000000000000000000000000000000000000000000600052603260045260246000fd5b906000526020600020906008020160010160006101000a81548173ffffffffffffffffffffffffffffffffffffffff021916908373ffffffffffffffffffffffffffffffffffffffff160217905550336004600083815260200190815260200160002060006101000a81548173ffffffffffffffffffffffffffffffffffffffff021916908373ffffffffffffffffffffffffffffffffffffffff16021790555050565b6004600082815260200190815260200160002060009054906101000a900473ffffffffffffffffffffffffffffffffffffffff1673ffffffffffffffffffffffffffffffffffffffff163373ffffffffffffffffffffffffffffffffffffffff161461099f576040517f08c379a000000000000000000000000000000000000000000000000000000000815260040161099690611835565b60405180910390fd5b6000600382815481106109db577f4e487b7100000000000000000000000000000000000000000000000000000000600052603260045260246000fd5b906000526020600020906008020160070160006101000a81548160ff02191690831515021790555050565b6004600082815260200190815260200160002060009054906101000a900473ffffffffffffffffffffffffffffffffffffffff1673ffffffffffffffffffffffffffffffffffffffff163373ffffffffffffffffffffffffffffffffffffffff1614610aed576004600082815260200190815260200160002060009054906101000a900473ffffffffffffffffffffffffffffffffffffffff1673ffffffffffffffffffffffffffffffffffffffff166108fc655af3107a40009081150290604051600060405180830381858888f19350505050158015610aeb573d6000803e3d6000fd5b505b50565b610af86111e5565b60038281548110610b32577f4e487b7100000000000000000000000000000000000000000000000000000000600052603260045260246000fd5b906000526020600020906008020160405180610100016040529081600082015481526020016001820160009054906101000a900473ffffffffffffffffffffffffffffffffffffffff1673ffffffffffffffffffffffffffffffffffffffff1673ffffffffffffffffffffffffffffffffffffffff1681526020016002820160009054906101000a900473ffffffffffffffffffffffffffffffffffffffff1673ffffffffffffffffffffffffffffffffffffffff1673ffffffffffffffffffffffffffffffffffffffff168152602001600382018054610c1290611aab565b80601f0160208091040260200160405190810160405280929190818152602001828054610c3e90611aab565b8015610c8b5780601f10610c6057610100808354040283529160200191610c8b565b820191906000526020600020905b815481529060010190602001808311610c6e57829003601f168201915b50505050508152602001600482018054610ca490611aab565b80601f0160208091040260200160405190810160405280929190818152602001828054610cd090611aab565b8015610d1d5780601f10610cf257610100808354040283529160200191610d1d565b820191906000526020600020905b815481529060010190602001808311610d0057829003601f168201915b5050505050815260200160058201548152602001600682015481526020016007820160009054906101000a900460ff1615151515815250509050919050565b60606003805480602002602001604051908101604052809291908181526020016000905b82821015610fbc578382906000526020600020906008020160405180610100016040529081600082015481526020016001820160009054906101000a900473ffffffffffffffffffffffffffffffffffffffff1673ffffffffffffffffffffffffffffffffffffffff1673ffffffffffffffffffffffffffffffffffffffff1681526020016002820160009054906101000a900473ffffffffffffffffffffffffffffffffffffffff1673ffffffffffffffffffffffffffffffffffffffff1673ffffffffffffffffffffffffffffffffffffffff168152602001600382018054610e6a90611aab565b80601f0160208091040260200160405190810160405280929190818152602001828054610e9690611aab565b8015610ee35780601f10610eb857610100808354040283529160200191610ee3565b820191906000526020600020905b815481529060010190602001808311610ec657829003601f168201915b50505050508152602001600482018054610efc90611aab565b80601f0160208091040260200160405190810160405280929190818152602001828054610f2890611aab565b8015610f755780601f10610f4a57610100808354040283529160200191610f75565b820191906000526020600020905b815481529060010190602001808311610f5857829003601f168201915b5050505050815260200160058201548152602001600682015481526020016007820160009054906101000a900460ff16151515158152505081526020019060010190610d80565b50505050905090565b6004600082815260200190815260200160002060009054906101000a900473ffffffffffffffffffffffffffffffffffffffff1673ffffffffffffffffffffffffffffffffffffffff163373ffffffffffffffffffffffffffffffffffffffff1614611066576040517f08c379a000000000000000000000000000000000000000000000000000000000815260040161105d906117d5565b60405180910390fd5b6001600382815481106110a2577f4e487b7100000000000000000000000000000000000000000000000000000000600052603260045260246000fd5b906000526020600020906008020160070160006101000a81548160ff02191690831515021790555050565b6060600280546110dc90611aab565b80601f016020809104026020016040519081016040528092919081815260200182805461110890611aab565b80156111555780601f1061112a57610100808354040283529160200191611155565b820191906000526020600020905b81548152906001019060200180831161113857829003601f168201915b5050505050905090565b82805461116b90611aab565b90600052602060002090601f01602090048101928261118d57600085556111d4565b82601f106111a657805160ff19168380011785556111d4565b828001600101855582156111d4579182015b828111156111d35782518255916020019190600101906111b8565b5b5090506111e19190611258565b5090565b60405180610100016040528060008152602001600073ffffffffffffffffffffffffffffffffffffffff168152602001600073ffffffffffffffffffffffffffffffffffffffff168152602001606081526020016060815260200160008152602001600081526020016000151581525090565b5b80821115611271576000816000905550600101611259565b5090565b6000611288611283846118fc565b6118d7565b9050828152602081018484840111156112a057600080fd5b6112ab848285611a69565b509392505050565b6000813590506112c281611e21565b92915050565b600082601f8301126112d957600080fd5b81356112e9848260208601611275565b91505092915050565b60008135905061130181611e38565b92915050565b6000806000806080858703121561131d57600080fd5b600085013567ffffffffffffffff81111561133757600080fd5b611343878288016112c8565b945050602085013567ffffffffffffffff81111561136057600080fd5b61136c878288016112c8565b935050604061137d878288016112f2565b925050606061138e878288016112b3565b91505092959194509250565b6000602082840312156113ac57600080fd5b60006113ba848285016112f2565b91505092915050565b60006113cf83836115f4565b905092915050565b6113e081611a21565b82525050565b60006113f18261193d565b6113fb8185611960565b93508360208202850161140d8561192d565b8060005b85811015611449578484038952815161142a85826113c3565b945061143583611953565b925060208a01995050600181019050611411565b50829750879550505050505092915050565b61146481611a33565b82525050565b600061147582611948565b61147f8185611971565b935061148f818560208601611a78565b61149881611be4565b840191505092915050565b60006114ae82611948565b6114b88185611982565b93506114c8818560208601611a78565b6114d181611be4565b840191505092915050565b60006114e9602083611982565b91506114f482611bf5565b602082019050919050565b600061150c602583611982565b915061151782611c1e565b604082019050919050565b600061152f602a83611982565b915061153a82611c6d565b604082019050919050565b6000611552601383611982565b915061155d82611cbc565b602082019050919050565b6000611575602683611982565b915061158082611ce5565b604082019050919050565b6000611598603283611982565b91506115a382611d34565b604082019050919050565b60006115bb602483611982565b91506115c682611d83565b604082019050919050565b60006115de602583611982565b91506115e982611dd2565b604082019050919050565b60006101008301600083015161160d6000860182611762565b50602083015161162060208601826113d7565b50604083015161163360408601826113d7565b506060830151848203606086015261164b828261146a565b91505060808301518482036080860152611665828261146a565b91505060a083015161167a60a0860182611762565b5060c083015161168d60c0860182611762565b5060e08301516116a060e086018261145b565b508091505092915050565b6000610100830160008301516116c46000860182611762565b5060208301516116d760208601826113d7565b5060408301516116ea60408601826113d7565b5060608301518482036060860152611702828261146a565b9150506080830151848203608086015261171c828261146a565b91505060a083015161173160a0860182611762565b5060c083015161174460c0860182611762565b5060e083015161175760e086018261145b565b508091505092915050565b61176b81611a5f565b82525050565b6000602082019050818103600083015261178b81846113e6565b905092915050565b600060208201905081810360008301526117ad81846114a3565b905092915050565b600060208201905081810360008301526117ce816114dc565b9050919050565b600060208201905081810360008301526117ee816114ff565b9050919050565b6000602082019050818103600083015261180e81611522565b9050919050565b6000602082019050818103600083015261182e81611545565b9050919050565b6000602082019050818103600083015261184e81611568565b9050919050565b6000602082019050818103600083015261186e8161158b565b9050919050565b6000602082019050818103600083015261188e816115ae565b9050919050565b600060208201905081810360008301526118ae816115d1565b9050919050565b600060208201905081810360008301526118cf81846116ab565b905092915050565b60006118e16118f2565b90506118ed8282611add565b919050565b6000604051905090565b600067ffffffffffffffff82111561191757611916611bb5565b5b61192082611be4565b9050602081019050919050565b6000819050602082019050919050565b600081519050919050565b600081519050919050565b6000602082019050919050565b600082825260208201905092915050565b600082825260208201905092915050565b600082825260208201905092915050565b600061199e82611a5f565b91506119a983611a5f565b9250817fffffffffffffffffffffffffffffffffffffffffffffffffffffffffffffffff04831182151516156119e2576119e1611b57565b5b828202905092915050565b60006119f882611a5f565b9150611a0383611a5f565b925082821015611a1657611a15611b57565b5b828203905092915050565b6000611a2c82611a3f565b9050919050565b60008115159050919050565b600073ffffffffffffffffffffffffffffffffffffffff82169050919050565b6000819050919050565b82818337600083830152505050565b60005b83811015611a96578082015181840152602081019050611a7b565b83811115611aa5576000848401525b50505050565b60006002820490506001821680611ac357607f821691505b60208210811415611ad757611ad6611b86565b5b50919050565b611ae682611be4565b810181811067ffffffffffffffff82111715611b0557611b04611bb5565b5b80604052505050565b6000611b1982611a5f565b91507fffffffffffffffffffffffffffffffffffffffffffffffffffffffffffffffff821415611b4c57611b4b611b57565b5b600182019050919050565b7f4e487b7100000000000000000000000000000000000000000000000000000000600052601160045260246000fd5b7f4e487b7100000000000000000000000000000000000000000000000000000000600052602260045260246000fd5b7f4e487b7100000000000000000000000000000000000000000000000000000000600052604160045260246000fd5b6000601f19601f8301169050919050565b7f4f776e65722063616e277420627579206869732f686572206f776e20626c6f67600082015250565b7f4f6e6c79206f776e6572206f6620626c6f672063616e20707574206974206f6e60008201527f2073616c65000000000000000000000000000000000000000000000000000000602082015250565b7f53616c652070726963652073686f756c64206265206d6f7265207468616e203060008201527f2e30303120657468657200000000000000000000000000000000000000000000602082015250565b7f426c6f67206973206e6f74206f6e2073616c6500000000000000000000000000600082015250565b7f4f6e6c79206f776e6572206f6620626c6f672063616e20707574206974206f6660008201527f662073616c650000000000000000000000000000000000000000000000000000602082015250565b7f426c6f67207469746c65206c656e6774682073686f756c64206265206d6f726560008201527f207468616e203320636861726163746572730000000000000000000000000000602082015250565b7f497420636f73747320302e303120657468657220746f2063726561746520612060008201527f626c6f6700000000000000000000000000000000000000000000000000000000602082015250565b7f5061792074686520657861637420626c6f672073616c6520616d6f756e74207460008201527f6f20627579000000000000000000000000000000000000000000000000000000602082015250565b611e2a81611a33565b8114611e3557600080fd5b50565b611e4181611a5f565b8114611e4c57600080fd5b5056fea264697066735822122010dc8e8546d649271d5b42c66fd38f7b67753e30074b03140cdd3f10d35de38d64736f6c63430008040033",
    "linkReferences": {},
    "deployedLinkReferences": {}
}