{
  "_format": "hh-sol-artifact-1",
  "contractName": "DBlog",
  "sourceName": "contracts/DBlog.sol",
  "abi": [
    {
      "inputs": [],
      "stateMutability": "payable",
      "type": "constructor"
    },
    {
      "inputs": [
        {
          "internalType": "uint256",
          "name": "blogId",
          "type": "uint256"
        }
      ],
      "name": "buyBlog",
      "outputs": [],
      "stateMutability": "payable",
      "type": "function"
    },
    {
      "inputs": [
        {
          "internalType": "string",
          "name": "_blogTitle",
          "type": "string"
        },
        {
          "internalType": "string",
          "name": "_blogBody",
          "type": "string"
        },
        {
          "internalType": "uint256",
          "name": "_salePrice",
          "type": "uint256"
        },
        {
          "internalType": "bool",
          "name": "_onSale",
          "type": "bool"
        }
      ],
      "name": "createBlog",
      "outputs": [],
      "stateMutability": "payable",
      "type": "function"
    },
    {
      "inputs": [
        {
          "internalType": "uint256",
          "name": "blogId",
          "type": "uint256"
        }
      ],
      "name": "getABlog",
      "outputs": [
        {
          "components": [
            {
              "internalType": "uint256",
              "name": "blogId",
              "type": "uint256"
            },
            {
              "internalType": "address",
              "name": "blogOwner",
              "type": "address"
            },
            {
              "internalType": "address",
              "name": "blogCreator",
              "type": "address"
            },
            {
              "internalType": "string",
              "name": "blogTitle",
              "type": "string"
            },
            {
              "internalType": "string",
              "name": "blogBody",
              "type": "string"
            },
            {
              "internalType": "uint256",
              "name": "numOfReads",
              "type": "uint256"
            },
            {
              "internalType": "uint256",
              "name": "salePrice",
              "type": "uint256"
            },
            {
              "internalType": "bool",
              "name": "onSale",
              "type": "bool"
            }
          ],
          "internalType": "struct DBlog.Blog",
          "name": "",
          "type": "tuple"
        }
      ],
      "stateMutability": "view",
      "type": "function"
    },
    {
      "inputs": [],
      "name": "getAllBlogs",
      "outputs": [
        {
          "components": [
            {
              "internalType": "uint256",
              "name": "blogId",
              "type": "uint256"
            },
            {
              "internalType": "address",
              "name": "blogOwner",
              "type": "address"
            },
            {
              "internalType": "address",
              "name": "blogCreator",
              "type": "address"
            },
            {
              "internalType": "string",
              "name": "blogTitle",
              "type": "string"
            },
            {
              "internalType": "string",
              "name": "blogBody",
              "type": "string"
            },
            {
              "internalType": "uint256",
              "name": "numOfReads",
              "type": "uint256"
            },
            {
              "internalType": "uint256",
              "name": "salePrice",
              "type": "uint256"
            },
            {
              "internalType": "bool",
              "name": "onSale",
              "type": "bool"
            }
          ],
          "internalType": "struct DBlog.Blog[]",
          "name": "",
          "type": "tuple[]"
        }
      ],
      "stateMutability": "view",
      "type": "function"
    },
    {
      "inputs": [],
      "name": "getContractName",
      "outputs": [
        {
          "internalType": "string",
          "name": "",
          "type": "string"
        }
      ],
      "stateMutability": "view",
      "type": "function"
    },
    {
      "inputs": [
        {
          "internalType": "uint256",
          "name": "blogId",
          "type": "uint256"
        }
      ],
      "name": "putBlogOnSale",
      "outputs": [],
      "stateMutability": "nonpayable",
      "type": "function"
    },
    {
      "inputs": [
        {
          "internalType": "uint256",
          "name": "blogId",
          "type": "uint256"
        }
      ],
      "name": "readBlog",
      "outputs": [],
      "stateMutability": "nonpayable",
      "type": "function"
    },
    {
      "inputs": [
        {
          "internalType": "uint256",
          "name": "blogId",
          "type": "uint256"
        }
      ],
      "name": "removeBlogFromSale",
      "outputs": [],
      "stateMutability": "nonpayable",
      "type": "function"
    },
    {
      "stateMutability": "payable",
      "type": "receive"
    }
  ],
  "bytecode": "0x6080604052336000806101000a81548173ffffffffffffffffffffffffffffffffffffffff021916908373ffffffffffffffffffffffffffffffffffffffff1602179055506040518060400160405280601681526020017f446563656e7472616c697a656420426c6f672041707000000000000000000000815250600290805190602001906200009192919062000098565b50620001ad565b828054620000a69062000148565b90600052602060002090601f016020900481019282620000ca576000855562000116565b82601f10620000e557805160ff191683800117855562000116565b8280016001018555821562000116579182015b8281111562000115578251825591602001919060010190620000f8565b5b50905062000125919062000129565b5090565b5b80821115620001445760008160009055506001016200012a565b5090565b600060028204905060018216806200016157607f821691505b602082108114156200017857620001776200017e565b5b50919050565b7f4e487b7100000000000000000000000000000000000000000000000000000000600052602260045260246000fd5b61204580620001bd6000396000f3fe60806040526004361061007f5760003560e01c8063b8e01fb11161004e578063b8e01fb114610115578063c4c7470014610152578063de82c35c1461017d578063f5f5ba72146101a657610086565b80630a1f58cd1461008b57806348f7516e146100a75780635c064e31146100c3578063ac845d66146100ec57610086565b3661008657005b600080fd5b6100a560048036038101906100a091906114c7565b6101d1565b005b6100c160048036038101906100bc919061155a565b610528565b005b3480156100cf57600080fd5b506100ea60048036038101906100e5919061155a565b610952565b005b3480156100f857600080fd5b50610113600480360381019061010e919061155a565b610a5a565b005b34801561012157600080fd5b5061013c6004803603810190610137919061155a565b610cb0565b6040516101499190611a75565b60405180910390f35b34801561015e57600080fd5b50610167610f1c565b6040516101749190611931565b60405180910390f35b34801561018957600080fd5b506101a4600480360381019061019f919061155a565b611185565b005b3480156101b257600080fd5b506101bb61128d565b6040516101c89190611953565b60405180910390f35b662386f26fc10000341461021a576040517f08c379a000000000000000000000000000000000000000000000000000000000815260040161021190611a35565b60405180910390fd5b66038d7ea4c68000808361022e9190611b53565b1161026e576040517f08c379a0000000000000000000000000000000000000000000000000000000008152600401610265906119b5565b60405180910390fd5b60038451116102b2576040517f08c379a00000000000000000000000000000000000000000000000000000000081526004016102a990611a15565b60405180910390fd5b600360405180610100016040528060015481526020013373ffffffffffffffffffffffffffffffffffffffff1681526020013373ffffffffffffffffffffffffffffffffffffffff1681526020018681526020018581526020016000815260200166038d7ea4c68000856103269190611b53565b815260200183151581525090806001815401808255809150506001900390600052602060002090600802016000909190919091506000820151816000015560208201518160010160006101000a81548173ffffffffffffffffffffffffffffffffffffffff021916908373ffffffffffffffffffffffffffffffffffffffff16021790555060408201518160020160006101000a81548173ffffffffffffffffffffffffffffffffffffffff021916908373ffffffffffffffffffffffffffffffffffffffff160217905550606082015181600301908051906020019061040e92919061131f565b50608082015181600401908051906020019061042b92919061131f565b5060a0820151816005015560c0820151816006015560e08201518160070160006101000a81548160ff02191690831515021790555050503360046000600154815260200190815260200160002060006101000a81548173ffffffffffffffffffffffffffffffffffffffff021916908373ffffffffffffffffffffffffffffffffffffffff1602179055503360056000600154815260200190815260200160002060006101000a81548173ffffffffffffffffffffffffffffffffffffffff021916908373ffffffffffffffffffffffffffffffffffffffff1602179055506001600081548092919061051d90611cce565b919050555050505050565b6004600082815260200190815260200160002060009054906101000a900473ffffffffffffffffffffffffffffffffffffffff1673ffffffffffffffffffffffffffffffffffffffff163373ffffffffffffffffffffffffffffffffffffffff1614156105ca576040517f08c379a00000000000000000000000000000000000000000000000000000000081526004016105c190611975565b60405180910390fd5b6001151560038281548110610608577f4e487b7100000000000000000000000000000000000000000000000000000000600052603260045260246000fd5b906000526020600020906008020160070160009054906101000a900460ff16151514610669576040517f08c379a0000000000000000000000000000000000000000000000000000000008152600401610660906119d5565b60405180910390fd5b600381815481106106a3577f4e487b7100000000000000000000000000000000000000000000000000000000600052603260045260246000fd5b90600052602060002090600802016006015434146106f6576040517f08c379a00000000000000000000000000000000000000000000000000000000081526004016106ed90611a55565b60405180910390fd5b60038181548110610730577f4e487b7100000000000000000000000000000000000000000000000000000000600052603260045260246000fd5b906000526020600020906008020160010160009054906101000a900473ffffffffffffffffffffffffffffffffffffffff1673ffffffffffffffffffffffffffffffffffffffff166108fc66038d7ea4c68000600384815481106107bd577f4e487b7100000000000000000000000000000000000000000000000000000000600052603260045260246000fd5b9060005260206000209060080201600601546107d99190611bad565b9081150290604051600060405180830381858888f19350505050158015610804573d6000803e3d6000fd5b5060008054906101000a900473ffffffffffffffffffffffffffffffffffffffff1673ffffffffffffffffffffffffffffffffffffffff166108fc66038d7ea4c680009081150290604051600060405180830381858888f19350505050158015610872573d6000803e3d6000fd5b5033600382815481106108ae577f4e487b7100000000000000000000000000000000000000000000000000000000600052603260045260246000fd5b906000526020600020906008020160010160006101000a81548173ffffffffffffffffffffffffffffffffffffffff021916908373ffffffffffffffffffffffffffffffffffffffff160217905550336004600083815260200190815260200160002060006101000a81548173ffffffffffffffffffffffffffffffffffffffff021916908373ffffffffffffffffffffffffffffffffffffffff16021790555050565b6004600082815260200190815260200160002060009054906101000a900473ffffffffffffffffffffffffffffffffffffffff1673ffffffffffffffffffffffffffffffffffffffff163373ffffffffffffffffffffffffffffffffffffffff16146109f3576040517f08c379a00000000000000000000000000000000000000000000000000000000081526004016109ea906119f5565b60405180910390fd5b600060038281548110610a2f577f4e487b7100000000000000000000000000000000000000000000000000000000600052603260045260246000fd5b906000526020600020906008020160070160006101000a81548160ff02191690831515021790555050565b6004600082815260200190815260200160002060009054906101000a900473ffffffffffffffffffffffffffffffffffffffff1673ffffffffffffffffffffffffffffffffffffffff163373ffffffffffffffffffffffffffffffffffffffff1614610cad576004600082815260200190815260200160002060009054906101000a900473ffffffffffffffffffffffffffffffffffffffff1673ffffffffffffffffffffffffffffffffffffffff166005600083815260200190815260200160002060009054906101000a900473ffffffffffffffffffffffffffffffffffffffff1673ffffffffffffffffffffffffffffffffffffffff1614158015610bc057506005600082815260200190815260200160002060009054906101000a900473ffffffffffffffffffffffffffffffffffffffff1673ffffffffffffffffffffffffffffffffffffffff163373ffffffffffffffffffffffffffffffffffffffff16145b15610bca57610c4b565b6004600082815260200190815260200160002060009054906101000a900473ffffffffffffffffffffffffffffffffffffffff1673ffffffffffffffffffffffffffffffffffffffff166108fc655af3107a40009081150290604051600060405180830381858888f19350505050158015610c49573d6000803e3d6000fd5b505b60038181548110610c85577f4e487b7100000000000000000000000000000000000000000000000000000000600052603260045260246000fd5b90600052602060002090600802016005016000815480929190610ca790611cce565b91905055505b50565b610cb86113a5565b60038281548110610cf2577f4e487b7100000000000000000000000000000000000000000000000000000000600052603260045260246000fd5b906000526020600020906008020160405180610100016040529081600082015481526020016001820160009054906101000a900473ffffffffffffffffffffffffffffffffffffffff1673ffffffffffffffffffffffffffffffffffffffff1673ffffffffffffffffffffffffffffffffffffffff1681526020016002820160009054906101000a900473ffffffffffffffffffffffffffffffffffffffff1673ffffffffffffffffffffffffffffffffffffffff1673ffffffffffffffffffffffffffffffffffffffff168152602001600382018054610dd290611c6b565b80601f0160208091040260200160405190810160405280929190818152602001828054610dfe90611c6b565b8015610e4b5780601f10610e2057610100808354040283529160200191610e4b565b820191906000526020600020905b815481529060010190602001808311610e2e57829003601f168201915b50505050508152602001600482018054610e6490611c6b565b80601f0160208091040260200160405190810160405280929190818152602001828054610e9090611c6b565b8015610edd5780601f10610eb257610100808354040283529160200191610edd565b820191906000526020600020905b815481529060010190602001808311610ec057829003601f168201915b5050505050815260200160058201548152602001600682015481526020016007820160009054906101000a900460ff1615151515815250509050919050565b60606003805480602002602001604051908101604052809291908181526020016000905b8282101561117c578382906000526020600020906008020160405180610100016040529081600082015481526020016001820160009054906101000a900473ffffffffffffffffffffffffffffffffffffffff1673ffffffffffffffffffffffffffffffffffffffff1673ffffffffffffffffffffffffffffffffffffffff1681526020016002820160009054906101000a900473ffffffffffffffffffffffffffffffffffffffff1673ffffffffffffffffffffffffffffffffffffffff1673ffffffffffffffffffffffffffffffffffffffff16815260200160038201805461102a90611c6b565b80601f016020809104026020016040519081016040528092919081815260200182805461105690611c6b565b80156110a35780601f10611078576101008083540402835291602001916110a3565b820191906000526020600020905b81548152906001019060200180831161108657829003601f168201915b505050505081526020016004820180546110bc90611c6b565b80601f01602080910402602001604051908101604052809291908181526020018280546110e890611c6b565b80156111355780601f1061110a57610100808354040283529160200191611135565b820191906000526020600020905b81548152906001019060200180831161111857829003601f168201915b5050505050815260200160058201548152602001600682015481526020016007820160009054906101000a900460ff16151515158152505081526020019060010190610f40565b50505050905090565b6004600082815260200190815260200160002060009054906101000a900473ffffffffffffffffffffffffffffffffffffffff1673ffffffffffffffffffffffffffffffffffffffff163373ffffffffffffffffffffffffffffffffffffffff1614611226576040517f08c379a000000000000000000000000000000000000000000000000000000000815260040161121d90611995565b60405180910390fd5b600160038281548110611262577f4e487b7100000000000000000000000000000000000000000000000000000000600052603260045260246000fd5b906000526020600020906008020160070160006101000a81548160ff02191690831515021790555050565b60606002805461129c90611c6b565b80601f01602080910402602001604051908101604052809291908181526020018280546112c890611c6b565b80156113155780601f106112ea57610100808354040283529160200191611315565b820191906000526020600020905b8154815290600101906020018083116112f857829003601f168201915b5050505050905090565b82805461132b90611c6b565b90600052602060002090601f01602090048101928261134d5760008555611394565b82601f1061136657805160ff1916838001178555611394565b82800160010185558215611394579182015b82811115611393578251825591602001919060010190611378565b5b5090506113a19190611418565b5090565b60405180610100016040528060008152602001600073ffffffffffffffffffffffffffffffffffffffff168152602001600073ffffffffffffffffffffffffffffffffffffffff168152602001606081526020016060815260200160008152602001600081526020016000151581525090565b5b80821115611431576000816000905550600101611419565b5090565b600061144861144384611abc565b611a97565b90508281526020810184848401111561146057600080fd5b61146b848285611c29565b509392505050565b60008135905061148281611fe1565b92915050565b600082601f83011261149957600080fd5b81356114a9848260208601611435565b91505092915050565b6000813590506114c181611ff8565b92915050565b600080600080608085870312156114dd57600080fd5b600085013567ffffffffffffffff8111156114f757600080fd5b61150387828801611488565b945050602085013567ffffffffffffffff81111561152057600080fd5b61152c87828801611488565b935050604061153d878288016114b2565b925050606061154e87828801611473565b91505092959194509250565b60006020828403121561156c57600080fd5b600061157a848285016114b2565b91505092915050565b600061158f83836117b4565b905092915050565b6115a081611be1565b82525050565b60006115b182611afd565b6115bb8185611b20565b9350836020820285016115cd85611aed565b8060005b8581101561160957848403895281516115ea8582611583565b94506115f583611b13565b925060208a019950506001810190506115d1565b50829750879550505050505092915050565b61162481611bf3565b82525050565b600061163582611b08565b61163f8185611b31565b935061164f818560208601611c38565b61165881611da4565b840191505092915050565b600061166e82611b08565b6116788185611b42565b9350611688818560208601611c38565b61169181611da4565b840191505092915050565b60006116a9602083611b42565b91506116b482611db5565b602082019050919050565b60006116cc602583611b42565b91506116d782611dde565b604082019050919050565b60006116ef602a83611b42565b91506116fa82611e2d565b604082019050919050565b6000611712601383611b42565b915061171d82611e7c565b602082019050919050565b6000611735602683611b42565b915061174082611ea5565b604082019050919050565b6000611758603283611b42565b915061176382611ef4565b604082019050919050565b600061177b602483611b42565b915061178682611f43565b604082019050919050565b600061179e602583611b42565b91506117a982611f92565b604082019050919050565b6000610100830160008301516117cd6000860182611922565b5060208301516117e06020860182611597565b5060408301516117f36040860182611597565b506060830151848203606086015261180b828261162a565b91505060808301518482036080860152611825828261162a565b91505060a083015161183a60a0860182611922565b5060c083015161184d60c0860182611922565b5060e083015161186060e086018261161b565b508091505092915050565b6000610100830160008301516118846000860182611922565b5060208301516118976020860182611597565b5060408301516118aa6040860182611597565b50606083015184820360608601526118c2828261162a565b915050608083015184820360808601526118dc828261162a565b91505060a08301516118f160a0860182611922565b5060c083015161190460c0860182611922565b5060e083015161191760e086018261161b565b508091505092915050565b61192b81611c1f565b82525050565b6000602082019050818103600083015261194b81846115a6565b905092915050565b6000602082019050818103600083015261196d8184611663565b905092915050565b6000602082019050818103600083015261198e8161169c565b9050919050565b600060208201905081810360008301526119ae816116bf565b9050919050565b600060208201905081810360008301526119ce816116e2565b9050919050565b600060208201905081810360008301526119ee81611705565b9050919050565b60006020820190508181036000830152611a0e81611728565b9050919050565b60006020820190508181036000830152611a2e8161174b565b9050919050565b60006020820190508181036000830152611a4e8161176e565b9050919050565b60006020820190508181036000830152611a6e81611791565b9050919050565b60006020820190508181036000830152611a8f818461186b565b905092915050565b6000611aa1611ab2565b9050611aad8282611c9d565b919050565b6000604051905090565b600067ffffffffffffffff821115611ad757611ad6611d75565b5b611ae082611da4565b9050602081019050919050565b6000819050602082019050919050565b600081519050919050565b600081519050919050565b6000602082019050919050565b600082825260208201905092915050565b600082825260208201905092915050565b600082825260208201905092915050565b6000611b5e82611c1f565b9150611b6983611c1f565b9250817fffffffffffffffffffffffffffffffffffffffffffffffffffffffffffffffff0483118215151615611ba257611ba1611d17565b5b828202905092915050565b6000611bb882611c1f565b9150611bc383611c1f565b925082821015611bd657611bd5611d17565b5b828203905092915050565b6000611bec82611bff565b9050919050565b60008115159050919050565b600073ffffffffffffffffffffffffffffffffffffffff82169050919050565b6000819050919050565b82818337600083830152505050565b60005b83811015611c56578082015181840152602081019050611c3b565b83811115611c65576000848401525b50505050565b60006002820490506001821680611c8357607f821691505b60208210811415611c9757611c96611d46565b5b50919050565b611ca682611da4565b810181811067ffffffffffffffff82111715611cc557611cc4611d75565b5b80604052505050565b6000611cd982611c1f565b91507fffffffffffffffffffffffffffffffffffffffffffffffffffffffffffffffff821415611d0c57611d0b611d17565b5b600182019050919050565b7f4e487b7100000000000000000000000000000000000000000000000000000000600052601160045260246000fd5b7f4e487b7100000000000000000000000000000000000000000000000000000000600052602260045260246000fd5b7f4e487b7100000000000000000000000000000000000000000000000000000000600052604160045260246000fd5b6000601f19601f8301169050919050565b7f4f776e65722063616e277420627579206869732f686572206f776e20626c6f67600082015250565b7f4f6e6c79206f776e6572206f6620626c6f672063616e20707574206974206f6e60008201527f2073616c65000000000000000000000000000000000000000000000000000000602082015250565b7f53616c652070726963652073686f756c64206265206d6f7265207468616e203060008201527f2e30303120657468657200000000000000000000000000000000000000000000602082015250565b7f426c6f67206973206e6f74206f6e2073616c6500000000000000000000000000600082015250565b7f4f6e6c79206f776e6572206f6620626c6f672063616e20707574206974206f6660008201527f662073616c650000000000000000000000000000000000000000000000000000602082015250565b7f426c6f67207469746c65206c656e6774682073686f756c64206265206d6f726560008201527f207468616e203320636861726163746572730000000000000000000000000000602082015250565b7f497420636f73747320302e303120657468657220746f2063726561746520612060008201527f626c6f6700000000000000000000000000000000000000000000000000000000602082015250565b7f5061792074686520657861637420626c6f672073616c6520616d6f756e74207460008201527f6f20627579000000000000000000000000000000000000000000000000000000602082015250565b611fea81611bf3565b8114611ff557600080fd5b50565b61200181611c1f565b811461200c57600080fd5b5056fea2646970667358221220f606e84db65aa0d141fd664b8d30a485b60743219d2c93eede81182e438c9cc264736f6c63430008040033",
  "linkReferences": {},
  "deployedLinkReferences": {}
}